:100000000C9434000C943E000C943E000C943E0082
:100010000C943E000C943E000C943E000C943E0068
:100020000C943E000C943E000C943E000C943E0058
:100030000C943E000C943E000C943E000C943E0048
:100040000C943E000C943E000C943E000C943E0038
:100050000C943E000C943E000C943E000C943E0028
:100060000C943E000C943E0011241FBECFEFD4E050
:10007000DEBFCDBF0E945D000C94AD000C9400006B
:1000800080E680937C0087E880937A0008959091C1
:100090007C008470987F892B80937C0080917A000B
:1000A000806480937A0080917A0086FDFCCF209155
:1000B000780030917900C9010895CF92DF92EF92D4
:1000C000FF920F931F93CF93DF938FEF8AB91BB8E3
:1000D00084B915B880E680937C0087E880937A0025
:1000E00080E00E9447006C0181E00E944700EC0123
:1000F00082E00E9447008C0183E00E9447007C015F
:1001000084E00E94470089ECC816D10418F0589A80
:10011000599A02C058985998C93CD10518F05A9A72
:100120005B9A02C05A985B98093C110510F05C9AE2
:1001300001C05C9889ECE816F10418F05D9A5E9AAB
:1001400002C05D985E9889ECC816D10418F05F9AD9
:0E015000289AC6CF5F982898C3CFF894FFCFA7
:00000001FF
