:100000000C9456000C9460000C9460000C946000FA
:100010000C9460000C9460000C9460000C946000E0
:100020000C9460000C9460000C9460000C946000D0
:100030000C9460000C9460000C9460000C946000C0
:100040000C9460000C9460000C9460000C946000B0
:100050000C9460000C9460000C9460000C946000A0
:100060000C9460000C9460000C9460000C94600090
:100070000C9460000C9460000C9460000C94600080
:100080000C9460000C9460000C9460000C94600070
:100090000C9460000C9460000C9460000C94600060
:1000A0000C9460000C9460000C94600011241FBE3E
:1000B000CFEFDAE0DEBFCDBF0E9462000C947F007C
:1000C0000C9400008FEF8AB91BB810BA11BA87E8F8
:1000D00080937A0084E680937C005D9A80917A0018
:1000E000806480937A0080917A0086FDFCCF8091B5
:1000F00079008D3C10F45C9AF0CF5C98EECFF894C8
:02010000FFCF2F
:00000001FF
